{
  "contractName": "MyContract",
  "abi": [
    {
      "inputs": [],
      "stateMutability": "nonpayable",
      "type": "constructor"
    },
    {
      "inputs": [
        {
          "internalType": "address",
          "name": "",
          "type": "address"
        }
      ],
      "name": "Childs",
      "outputs": [
        {
          "internalType": "uint256",
          "name": "amount",
          "type": "uint256"
        },
        {
          "internalType": "uint256",
          "name": "timeToGetMoney",
          "type": "uint256"
        },
        {
          "internalType": "bool",
          "name": "paid",
          "type": "bool"
        }
      ],
      "stateMutability": "view",
      "type": "function"
    },
    {
      "inputs": [],
      "name": "admin",
      "outputs": [
        {
          "internalType": "address",
          "name": "",
          "type": "address"
        }
      ],
      "stateMutability": "view",
      "type": "function"
    },
    {
      "inputs": [
        {
          "internalType": "address",
          "name": "_child",
          "type": "address"
        },
        {
          "internalType": "uint256",
          "name": "_time",
          "type": "uint256"
        }
      ],
      "name": "addChild",
      "outputs": [],
      "stateMutability": "payable",
      "type": "function"
    },
    {
      "inputs": [],
      "name": "withdraw",
      "outputs": [],
      "stateMutability": "nonpayable",
      "type": "function"
    }
  ],
  "bytecode": "0x608060405234801561001057600080fd5b50336000806101000a81548173ffffffffffffffffffffffffffffffffffffffff021916908373ffffffffffffffffffffffffffffffffffffffff1602179055506109f0806100606000396000f3fe60806040526004361061003f5760003560e01c80633ccfd60b14610044578063dba0739b1461005b578063e90aacf81461009a578063f851a440146100b6575b600080fd5b34801561005057600080fd5b506100596100e1565b005b34801561006757600080fd5b50610082600480360381019061007d91906105da565b610366565b6040516100919392919061063b565b60405180910390f35b6100b460048036038101906100af919061069e565b61039d565b005b3480156100c257600080fd5b506100cb610553565b6040516100d891906106ed565b60405180910390f35b6000600160003373ffffffffffffffffffffffffffffffffffffffff1673ffffffffffffffffffffffffffffffffffffffff1681526020019081526020016000206000015411610166576040517f08c379a000000000000000000000000000000000000000000000000000000000815260040161015d90610765565b60405180910390fd5b42600160003373ffffffffffffffffffffffffffffffffffffffff1673ffffffffffffffffffffffffffffffffffffffff1681526020019081526020016000206001015411156101eb576040517f08c379a00000000000000000000000000000000000000000000000000000000081526004016101e2906107d1565b60405180910390fd5b60001515600160003373ffffffffffffffffffffffffffffffffffffffff1673ffffffffffffffffffffffffffffffffffffffff16815260200190815260200160002060020160009054906101000a900460ff16151514610281576040517f08c379a00000000000000000000000000000000000000000000000000000000081526004016102789061083d565b60405180910390fd5b60018060003373ffffffffffffffffffffffffffffffffffffffff1673ffffffffffffffffffffffffffffffffffffffff16815260200190815260200160002060020160006101000a81548160ff0219169083151502179055503373ffffffffffffffffffffffffffffffffffffffff166108fc600160003373ffffffffffffffffffffffffffffffffffffffff1673ffffffffffffffffffffffffffffffffffffffff168152602001908152602001600020600001549081150290604051600060405180830381858888f19350505050158015610363573d6000803e3d6000fd5b50565b60016020528060005260406000206000915090508060000154908060010154908060020160009054906101000a900460ff16905083565b60008054906101000a900473ffffffffffffffffffffffffffffffffffffffff1673ffffffffffffffffffffffffffffffffffffffff163373ffffffffffffffffffffffffffffffffffffffff161461042b576040517f08c379a0000000000000000000000000000000000000000000000000000000008152600401610422906108a9565b60405180910390fd5b6000600160008473ffffffffffffffffffffffffffffffffffffffff1673ffffffffffffffffffffffffffffffffffffffff16815260200190815260200160002060000154146104b0576040517f08c379a00000000000000000000000000000000000000000000000000000000081526004016104a790610915565b60405180910390fd5b604051806060016040528034815260200182426104cd9190610964565b815260200160001515815250600160008473ffffffffffffffffffffffffffffffffffffffff1673ffffffffffffffffffffffffffffffffffffffff168152602001908152602001600020600082015181600001556020820151816001015560408201518160020160006101000a81548160ff0219169083151502179055509050505050565b60008054906101000a900473ffffffffffffffffffffffffffffffffffffffff1681565b600080fd5b600073ffffffffffffffffffffffffffffffffffffffff82169050919050565b60006105a78261057c565b9050919050565b6105b78161059c565b81146105c257600080fd5b50565b6000813590506105d4816105ae565b92915050565b6000602082840312156105f0576105ef610577565b5b60006105fe848285016105c5565b91505092915050565b6000819050919050565b61061a81610607565b82525050565b60008115159050919050565b61063581610620565b82525050565b60006060820190506106506000830186610611565b61065d6020830185610611565b61066a604083018461062c565b949350505050565b61067b81610607565b811461068657600080fd5b50565b60008135905061069881610672565b92915050565b600080604083850312156106b5576106b4610577565b5b60006106c3858286016105c5565b92505060206106d485828601610689565b9150509250929050565b6106e78161059c565b82525050565b600060208201905061070260008301846106de565b92915050565b600082825260208201905092915050565b7f4f6e6c79204368696c642043616e205769746472617700000000000000000000600082015250565b600061074f601683610708565b915061075a82610719565b602082019050919050565b6000602082019050818103600083015261077e81610742565b9050919050565b7f546f6f204561726c7920546f2057697468647261770000000000000000000000600082015250565b60006107bb601583610708565b91506107c682610785565b602082019050919050565b600060208201905081810360008301526107ea816107ae565b9050919050565b7f416c726561647920576974686472617765640000000000000000000000000000600082015250565b6000610827601283610708565b9150610832826107f1565b602082019050919050565b600060208201905081810360008301526108568161081a565b9050919050565b7f4f6e6c792041646d696e2043616e20416464204368696c640000000000000000600082015250565b6000610893601883610708565b915061089e8261085d565b602082019050919050565b600060208201905081810360008301526108c281610886565b9050919050565b7f54686973204368696c6420416c72656164792045786973740000000000000000600082015250565b60006108ff601883610708565b915061090a826108c9565b602082019050919050565b6000602082019050818103600083015261092e816108f2565b9050919050565b7f4e487b7100000000000000000000000000000000000000000000000000000000600052601160045260246000fd5b600061096f82610607565b915061097a83610607565b9250827fffffffffffffffffffffffffffffffffffffffffffffffffffffffffffffffff038211156109af576109ae610935565b5b82820190509291505056fea26469706673582212207daf0deae2325a41a0ac03c379bb6bd4a101750e62f9a5dfb638a9654a335d2064736f6c63430008090033",
  "immutableReferences": {},
  "source": "pragma solidity >=0.8.0;\n\ncontract MyContract{\n    address public admin;\n    struct Child{\n        uint amount;\n        uint timeToGetMoney;\n        bool paid;\n    }\n    mapping(address=>Child) public Childs;\n\n    constructor(){\n        admin=msg.sender;\n    }\n\n    function addChild(address _child, uint _time) payable external{\n        require(msg.sender==admin,\"Only Admin Can Add Child\");\n        require(Childs[_child].amount==0, \"This Child Already Exist\");\n        Childs[_child]=Child(msg.value,block.timestamp+_time,false);\n    }\n\n    function withdraw() external {\n        require(Childs[msg.sender].amount>0,\"Only Child Can Witdraw\");\n        require(Childs[msg.sender].timeToGetMoney<=block.timestamp,\"Too Early To Withdraw\");\n        require(Childs[msg.sender].paid==false,\"Already Withdrawed\");\n        Childs[msg.sender].paid=true;\n        payable(msg.sender).transfer(Childs[msg.sender].amount);\n    }\n}",
  "sourcePath": "/home/foxtrot/blockchain/dapp/futureDeposit/contracts/MyContract.sol",
  "compiler": {
    "name": "solc",
    "version": "0.8.9+commit.e5eed63a.Emscripten.clang"
  },
  "schemaVersion": "3.4.3",
  "updatedAt": "2021-10-31T19:24:16.263Z",
  "devdoc": {
    "kind": "dev",
    "methods": {},
    "version": 1
  },
  "userdoc": {
    "kind": "user",
    "methods": {},
    "version": 1
  }
}